:400000000040002011000000F51B0000F51B000080B500AF01F0F8FD80B500AF294B12221A6002F0E9F9284B180003F0D9FB012002F0F2F9082001F0CFFE244B244A1A60FE
:40004000244B8022D2051A60234B234A126802210A431A60214B224A1A60224B00221A60214B214A126808218A431A60FA23DB00180001F0FFFE1D4B180002F049F81C4BAB
:400080008022D2001A601B4B1B4A1A601B4B802212061A601A4B00221A601A4B40221A60194B1900082001F05BFF082001F0D2FF084B8022D2051A60024B00221A60C04622
:4000C000BD4680BD30001040001BB70004010B40060000800C020B4078002E407C002E407171000064F02E406CF02E40DC050000000301400000014040FF008008010B4088
:4001000000010B4004010140D526000080B582B000AF72B6344B00221A60FB1D00221A7022E0FB1D1A7813005B009B185B002F4A9B183B603B681A78597809020A439978B7
:4001400009040A43DB781B06134318003B681A795B791B0213439BB2190001F027FDFB1D1A78FB1D01321A70FB1D1B78012BD8D91F4BEE2212061A601E4BEE2212041A602F
:400180001D4B992212041A601C4B992212041A601B4B992212041A601A4A1A4B1B78DBB206210B43DBB21370174BD82212041A60164B30221A60164B902292021A60154B21
:4001C00010221A60144BC022D2011A60134B28221A60134B04221A60FFF71EFF01F0F6FCC046BD4602B080BD6CF02E40A4600100000002400001024000500F4010500F4015
:4002000030500F4000700F400800044000010440080104400003044008030440080404400C04044010B5064C2378002B07D1054B002B02D0044800E000BF0123237010BDA7
:400240007810002000000000505F0100084B10B5002B03D00749084800E000BF07480368002B00D110BD064B002BFBD09847F9E7000000007C100020505F0100A80B002019
:400280000000000080B582B000AF062002F002FB002002F017FB094B01221A70FB1DB6221A70FB1D01221900142000F0B3F803F01FFAC046BD4602B080BDC0469410002083
:4002C00080B588B000AF01F0E5FB02F055FF264B180003F025FAFB1C00221A701F23FB18FF221A703B1D180001F024FA02001F23FB181A701F23FB181B785BB2002B0CD011
:4003000002F008FB03005A425341DBB2180002F0D9FAFA2001F0D6FEF2E7FB1C01221900002000F0B3F8114B1B78DBB2002B0BD1062002F0AFFA02F0EDFA03005A42534115
:40034000DBB2180002F0BEFA04F094F801F0F4FB064B1B78DBB2002B02D1002002F09AFA01F0B6FBDFE7C0468502000094100020B0B584B000AF78600F23FB18FF221A70F0
:400380000E23FB1800221A700D23FB1800221A701F4B7A681A601E4B1B68002B04D10F23FB1881221A702BE0194B1B68DD68184B1B6818790F23FC180E23FA1801230021BE
:4003C000A84703002370124B1B680E22BA1812785A700D23FB18012219003E2000F056F80300DAB20F23FB181B78D318DAB20F23FB181A70064B1B680D22BA1812785A7150
:400400000F23FB181B785BB21800BD4604B0B0BD98100020F0B585B000AF39601100FB1D021C1A70BB1D0A1C1A700F23FB18FF221A70154B1B68002B02D17F235B421EE04A
:40044000114B1B689D68104B1B6818790F23FC18BB1D1E783A68FB1D19783300A84703002370094B1B681B78002B04D0064B1B685B69012098470F23FB181B785BB2180074
:40048000BD4605B0F0BDC04698100020F0B585B000AF39601100FB1D021C1A70BB1D0A1C1A700F23FB18FF221A70104B1B68002B02D17F235B4214E00C4B1B68DD680B4B1A
:4004C0001B6818790F23FC18BB1D1E783A68FB1D19783300A847030023700F23FB181B785BB21800BD4605B0F0BDC04698100020B0B584B000AF0200FB1D1A700F23FB18D0
:40050000FF221A700D23FB1800221A700E23FB1800221A707C4B1B68002B04D10F23FB1881221A70E8E0784B1B685B78FB2B6FD1FB1D1B78072B66D9FB1D1B780E2B62D8F4
:40054000FB1D1B78083B062B27D89A006F4BD3181B689F460E23FB1808221A701EE00E23FB1809221A7019E00E23FB180A221A7014E00E23FB180B221A700FE00E23FB18B2
:400580000C221A700AE00E23FB180D221A7005E00E23FB180E221A7000E0C0465A4B1B68DD68594B1B6818790F23FC180D23FA1801231021A847030023700D23FB181B7876
:4005C0005BB21F2293435AB20E23FB181B785BB21F210B405BB213435BB2DAB20D23FB181A700D23FB18012219001020FFF712FF0300DAB20F23FB181B78D318DAB20F23CD
:40060000FB181A7078E00F23FB18FE221A7073E0FB1D1B78072B6BD9FB1D1B780F2B67D8FB1D1B78083B072B2CD89A00384BD3181B689F460E23FB1808221A7023E00E237E
:40064000FB1809221A701EE00E23FB180A221A7019E00E23FB180B221A7014E00E23FB180C221A700FE00E23FB180D221A700AE00E23FB180E221A7005E00E23FB180F22A8
:400680001A7000E0C046204B1B68DD681E4B1B6818790F23FC180D23FA1801231021A847030023700D23FB181B785BB21F2293435AB20E23FB181B785BB21F210B405BB236
:4006C00013435BB2DAB20D23FB181A700D23FB18012219001020FFF79DFE0300DAB20F23FB181B78D318DAB20F23FB181A7003E00F23FB18FE221A700F23FB181B785BB29A
:400700001800BD4604B0B0BD98100020545F0100705F0100B0B584B000AF0200FB1D1A700F23FB18FF221A700E23FB1800221A700D23FB1800221A700C23FB1800221A7088
:400740000B23FB1800221A700A23FB1800221A70834B1B68002B04D10F23FB1881221A70F5E07F4B1B68DD687D4B1B6818790F23FC180C23FA1801231121A8470300237038
:40078000774B1B68DC68764B1B6818790B23FA1801231221A0470300DAB20F23FB181B78D318DAB20F23FB181A706D4B1B685A790A23FB181A700A23FB181B780C22134381
:4007C000DAB20A23FB181A70FB1D1B78180000F0C9F80300DAB20F23FB181B78D318DAB20F23FB181A705E4B1A680E23FB1892781A705B4B1A680D23FB18D2781A700B2312
:40080000FB181B785BB2402293435AB20D23FB181B789B015BB240210B405BB213435BB2DAB20B23FB181A700B23FB18012219001220FFF7EFFD0300DAB20F23FB181B78D7
:40084000D318DAB20F23FB181A70454B1B685B6901209847424B1B681B78012B04D0404B1B681B78042B34D1FB1D1B78002B30D10C23FB181B785BB21F2213405BB28022E7
:40088000524213435BB2DAB20C23FB181A700C23FB18012219001120FFF7BCFD0300DAB20F23FB181B78D318DAB20F23FB181A700A23FB18012219003E20FFF7ABFD030063
:4008C000DAB20F23FB181B78D318DAB20F23FB181A700C23FB181B785BB21F2213405AB20E23FB181B785B015BB213435BB2DAB20C23FB181A700C23FB1801221900112022
:40090000FFF788FD0300DAB20F23FB181B78D318DAB20F23FB181A70114B1B685B69012098470A23FB18012219003E20FFF772FD0300DAB20F23FB181B78D318DAB20F239D
:40094000FB181A70064B1B68FA1D12781A700F23FB181B785BB21800BD4604B0B0BDC0469810002080B584B000AF0200FB1D1A700F23FB1800221A702A4B1B68002B04D147
:400980000F23FB1881221A7043E0FB1D1B78052B3BD8FB1D1B78052B3BD89A00224BD3181B689F461F4B1B6800229A701D4B1B680022DA702DE01B4B1B6802229A70194B74
:4009C0001B680022DA7024E0164B1B6802229A70144B1B680122DA701BE0124B1B6804229A70104B1B680022DA7012E00D4B1B6804229A700B4B1B680122DA7009E0094BCE
:400A00001B6801229A70C04603E00F23FB18FE221A700F23FB181B785BB21800BD4604B080BDC04698100020905F0100B0B584B000AF0200FB1D1A700D23FB1800221A70A4
:400A40000F23FB18FF221A700E23FB1800221A704A4B1B68002B02D17F235B4289E0FB1D1B78042B00D87CE0FB1D1B780F2B00D977E0FB1D1B78053B0A2B3BD89A00404B5D
:400A8000D3181B689F460E23FB1805221A7032E00E23FB1806221A702DE00E23FB1807221A7028E00E23FB1808221A7023E00E23FB1809221A701EE00E23FB180A221A70EE
:400AC00019E00E23FB180B221A7014E00E23FB180C221A700FE00E23FB180D221A700AE00E23FB180E221A7005E00E23FB180F221A7000E0C046214B1B68DD681F4B1B6853
:400B000018790F23FC180D23FA1801231121A847030023700D23FB181B785BB21E2293435AB20E23FB181B785B005BB21E210B405BB213435BB2DAB20D23FB181A700D23FA
:400B4000FB18012219001120FFF764FC0300DAB20F23FB181B78D318DAB20F23FB181A7003E00F23FB18FE221A700F23FB181B785BB21800BD4604B0B0BDC0469810002031
:400B8000A85F0100B0B584B000AF02003960FB1D1A700E23FB1800221A700F23FB18FF221A70A74B1B68002B02D17F235B4243E1FB1D1B780B2B00D935E19A00A14BD318B1
:400BC0001B689F469E4B1B68DD689D4B1B6818790F23FC180E23FA1801231721A847030023700E23FB181B78DB10DBB201221340DAB23B681A701BE1914B1B68DD68904B7D
:400C00001B6818790F23FC180E23FA1801231721A847030023700E23FB181B7801221340DAB23B681A7003E1854B1B68DD68844B1B6818790F23FC180E23FA1801231721EC
:400C4000A847030023700E23FB181B785B10DBB201221340DAB23B681A70E9E0784B1B68DD68774B1B6818790F23FC180E23FA1801231721A847030023700E23FB181B7886
:400C80009B10DBB201221340DAB23B681A70CFE06B4B1B68DD686A4B1B6818790F23FC180E23FA1801231721A847030023700E23FB181B781B11DBB201221340DAB23B6838
:400CC0001A70B5E05E4B1B68DD685D4B1B6818790F23FC180E23FA1801231621A847030023700E23FB181B7801221340DAB23B681A709DE0524B1B68DD68514B1B681879A7
:400D00000F23FC180E23FA1801231621A847030023700E23FB181B785B10DBB201221340DAB23B681A7083E0454B1B68DD68444B1B6818790F23FC180E23FA18012316210A
:400D4000A847030023700E23FB181B789B10DBB201221340DAB23B681A7069E0384B1B68DD68374B1B6818790F23FC180E23FA1801231621A847030023700E23FB181B7846
:400D80005B11DBB201221340DAB23B681A704FE02B4B1B68DD682A4B1B6818790F23FC180E23FA1801231621A847030023700E23FB181B781B11DBB201221340DAB23B6877
:400DC0001A7035E01E4B1B68DD681D4B1B6818790F23FC180E23FA1801231621A847030023700E23FB181B789B11DBB201221340DAB23B681A701BE0114B1B68DD68104B85
:400E00001B6818790F23FC180E23FA1801231621A847030023700E23FB181B78DB09DAB23B681A7004E00F23FB18FE221A70C0460F23FB181B785BB21800BD4604B0B0BDC7
:400E400098100020D45F0100B0B584B000AF0200FB1D1A70BB1D0A1C1A700F23FB18FF221A700E23FB1800221A700D23FB1800221A70B04B1B68002B02D17F235B4255E142
:400E8000AC4B1B68DD68AB4B1B6818790F23FC180E23FA1801231621A84703002370A54B1B68DC68A34B1B6818790D23FA1801231721A0470300DAB20F23FB181B78D31870
:400EC000DAB20F23FB181A70BB1DBA1D127801210A401A70FB1D1B780B2B00D9FBE09A00954BD3181B689F460D23FB181B785BB2082293435AB2BB1D1B78DB005BB208219B
:400F00000B405BB213435BB2DAB20D23FB181A70E6E00D23FB181B785BB2012293435AB2BB1D1B785BB201210B405BB213435BB2DAB20D23FB181A70D2E00D23FB181B78B9
:400F40005BB2022293435AB2BB1D1B785B005BB202210B405BB213435BB2DAB20D23FB181A70BDE00D23FB181B785BB2042293435AB2BB1D1B789B005BB204210B405BB23C
:400F800013435BB2DAB20D23FB181A70A8E00D23FB181B785BB2102293435AB2BB1D1B781B015BB210210B405BB213435BB2DAB20D23FB181A7093E00E23FB181B785BB2C6
:400FC000012293435AB2BB1D1B785BB201210B405BB213435BB2DAB20E23FB181A707FE00E23FB181B785BB2022293435AB2BB1D1B785B005BB202210B405BB213435BB243
:40100000DAB20E23FB181A706AE00E23FB181B785BB2042293435AB2BB1D1B789B005BB204210B405BB213435BB2DAB20E23FB181A7055E00E23FB181B785BB220229343A2
:401040005AB2BB1D1B785B015BB220210B405BB213435BB2DAB20E23FB181A7040E00E23FB181B785BB2102293435AB2BB1D1B781B015BB210210B405BB213435BB2DAB216
:401080000E23FB181A702BE00E23FB181B785BB2402293435AB2BB1D1B789B015BB240210B405BB213435BB2DAB20E23FB181A7016E00E23FB181B785BB27F2213405AB2CB
:4010C000BB1D1B78DB015BB213435BB2DAB20E23FB181A7004E00F23FB18FE221A70C0460E23FB18012219001620FFF793F90300DAB20F23FB181B78D318DAB20F23FB18AB
:401100001A700D23FB18012219001720FFF782F90300DAB20F23FB181B78D318DAB20F23FB181A700F23FB181B785BB21800BD4604B0B0BD9810002004600100B0B584B06A
:4011400000AF02003960FB1D1A700E23FB1800221A700F23FB18FF221A705C4B1B68002B02D17F235B42ACE0FB1D1B78052B00D99EE09A00564BD3181B689F46534B1B68CF
:40118000DD68524B1B6818790F23FC180E23FA1801231E21A847030023700E23FB181B7801221340DAB23B681A7086E0474B1B68DD68464B1B6818790F23FC180E23FA18D4
:4011C00001231E21A847030023700E23FB181B785B10DBB201221340DAB23B681A706CE03A4B1B68DD68394B1B6818790F23FC180E23FA1801231E21A847030023700E2336
:40120000FB181B789B10DBB201221340DAB23B681A7052E02D4B1B68DD682C4B1B6818790F23FC180E23FA1801231E21A847030023700E23FB181B78DB10DBB2012213406E
:40124000DAB23B681A7038E0204B1B68DD681F4B1B6818790F23FC180E23FA1801231E21A847030023700E23FB181B781B11DBB201221340DAB23B681A701EE0134B1B68DD
:40128000DD68124B1B6818790F23FC180E23FA1801231E21A847030023700E23FB181B785B11DBB201221340DAB23B681A7004E00F23FB18FE221A70C0460F23FB181B7857
:4012C0005BB21800BD4604B0B0BDC0469810002034600100B0B584B000AF0200FB1D1A70BB1D0A1C1A700E23FB1800221A700F23FB18FF221A70AE4B1B68002B04D10F2340
:40130000FB1881221A704BE1FB1D1B78052B00D941E19A00A74BD3181B689F46A44B1B68DD68A34B1B6818790F23FC180E23FA1801231E21A847030023700E23FB181B788B
:401340005BB2012293435AB2BB1D1B785BB201210B405BB213435BB2DAB20E23FB181A700E23FB18012219001E20FFF753F80300DAB20F23FB181B78D318DAB20F23FB188A
:401380001A700DE18A4B1B68DD68894B1B6818790F23FC180E23FA1801231E21A847030023700E23FB181B785BB2022293435AB2BB1D1B785B005BB202210B405BB2134331
:4013C0005BB2DAB20E23FB181A700E23FB18012219001E20FFF71EF80300DAB20F23FB181B78D318DAB20F23FB181A70D8E0704B1B68DD686E4B1B6818790F23FC180E2390
:40140000FA1801231E21A847030023700E23FB181B785BB2042293435AB2BB1D1B789B005BB204210B405BB213435BB2DAB20E23FB181A700E23FB18012219001E20FEF7C6
:40144000E9FF0300DAB20F23FB181B78D318DAB20F23FB181A70A3E0554B1B68DD68544B1B6818790F23FC180E23FA1801231E21A847030023700E23FB181B785BB20822BA
:4014800093435AB2BB1D1B78DB005BB208210B405BB213435BB2DAB20E23FB181A700E23FB18012219001E20FEF7B4FF0300DAB20F23FB181B78D318DAB20F23FB181A70A6
:4014C0006EE03B4B1B68DD68394B1B6818790F23FC180E23FA1801231E21A847030023700E23FB181B785BB2102293435AB2BB1D1B781B015BB210210B405BB213435BB2CF
:40150000DAB20E23FB181A700E23FB18012219001E20FEF77FFF0300DAB20F23FB181B78D318DAB20F23FB181A7039E0204B1B68DD681F4B1B6818790F23FC180E23FA1820
:4015400001231E21A847030023700E23FB181B785BB2202293435AB2BB1D1B785B015BB220210B405BB213435BB2DAB20E23FB181A700E23FB18012219001E20FEF74AFF55
:401580000300DAB20F23FB181B78D318DAB20F23FB181A7004E00F23FB18FE221A70C0460F23FB181B785BB21800BD4604B0B0BD981000204C600100B0B584B000AF0200C5
:4015C000FB1D1A700D23FB1800221A700F23FB18FF221A700E23FB1800221A70534B1B68002B02D17F235B429BE0FB1D1B780F2B00D98EE0FB1D1B780F2B54D89A004C4B33
:40160000D3181B689F460E23FB1800221A704BE00E23FB1801221A7046E00E23FB1802221A7041E00E23FB1803221A703CE00E23FB1804221A7037E00E23FB1805221A7003
:4016400032E00E23FB1806221A702DE00E23FB1807221A7028E00E23FB1808221A7023E00E23FB1809221A701EE00E23FB180A221A7019E00E23FB180B221A7014E00E2351
:40168000FB180C221A700FE00E23FB180D221A700AE00E23FB180E221A7005E00E23FB180F221A7000E0C046204B1B68DD681F4B1B6818790F23FC180D23FA180123212122
:4016C000A847030023700D23FB181B785BB20F2293435AB20E23FB181B785BB20F210B405BB213435BB2DAB20D23FB181A700D23FB18012219002120FEF78CFE0300DAB279
:401700000F23FB181B78D318DAB20F23FB181A7003E00F23FB18FE221A700F23FB181B785BB21800BD4604B0B0BDC046981000206460010090B585B000AF78600E23FB18C0
:4017400008221A700F23FB18FF221A700F23FC187B68180000F074F8030023700D23FB18B6221A700D23FB18012219001420FEF751FE0F23FC187B681800FEF7F9FD0300C7
:4017800023700C23FB1802221A700B23FB1807221A700A23FB18C0221A700F23FB181B785BB2002B0CD10020FEF7B4FF0300DAB20F23FB181B78D318DAB20F23FB181A70A4
:4017C0000F23FB181B785BB2002B0FD10E23FB181B781800FEF78CFE0300DAB20F23FB181B78D318DAB20F23FB181A700F23FB181B785BB2002B1AD10C23FB180122190065
:401800001920FEF707FE0A23FB18012219002620FEF700FE192000F055FC0B23FB18012219001720FEF7F6FD192000F04BFC0F23FB181B785BB21800BD4605B090BDC04632
:4018400080B582B000AF78607B68084A9A607B68074ADA607B68074A5A617B6818221A7100231800BD4602B080BDC04679180000691900007D1A000090B587B000AF04003A
:4018800008003A601900FB1D221C1A70BB1D021C1A707B1D0A1C1A701723FB1800221A701623FB1800221A700C23FB18BA1D12781A701723FB1801221A7011E01723FB186F
:4018C0001B783A6811780C22BA18D1543B6801333B601723FB181A781723FB1801321A701723FA187B1D12781B789A42E6D9FB1D1B7864220021180001F002FD0200162379
:40190000FB181A701723FB1800221A7014E01723FB181B780C22BA18D35C6421180001F0ABFD02001623FB181A701723FB181A781723FB1801321A701723FA187B1D1278A9
:401940001B789A4205D81623FB181B785BB2002BDDD0642001F04EFD1623FB181B785BB21800BD4607B090BD90B585B000AF040008003A601900FB1D221C1A70BB1D021CCE
:401980001A707B1D0A1C1A700F23FB1800221A703B68BB60FB1D1B7864220021180001F0AFFC02000F23FB181A700F23FB181B785BB2002B09D1BB1D1B786421180001F0EC
:4019C0005BFD02000F23FB181A700F23FB181B785BB2002B06D1642001F00CFD02000F23FB181A700F23FB181B785BB2002B23D1FB1D1B7864220121180001F081FC0200A9
:401A00000F23FB181A7017E00F23FB180F22BA1812781A700F23FB181B785BB2002B0BD1BB685A1CBA6064221900002001F05EFD02000F23FB181A707B1D1B787A1D591ED0
:401A40001170012BE0D80F23FB181B785BB2002B09D1BB6864221900012001F047FD02000F23FB181A70642001F0C4FC0F23FB181B785BB21800BD4605B090BD80B582B090
:401A800000AF78607B68180000F01CFBC046BD4602B080BD90B583B000AF62B6BC1D0B4B180000F061FF03002380BB1D1B88002B02D0002000F0FAFA032000F025FA00F08B
:401AC0004DFCC046BD4603B090BDC046711B000090B583B000AF032002F0C4FCFC1D01F088FE03002370BC1D04F013FD03002370BB1D1B78042B03D0BB1D1B78062B02D191
:401B000000F072FB0FE0BB1D1B78022B0BD0022000F01AF900F00AF900F04CFB00F0F8F8002000F011F9FB1D1B78180001F065FEC046BD4603B090BD80B500AF04F0E9FCC0
:401B40000300022B0CD1084B9B68084A12789A73054B9A68044BDB681900100004F08CFCC046BD4680BDC046180C00209410002080B582B000AF786039607B68262B08D0A9
:401B8000282B02D0012B00D00AE0002000F084FF06E0054B1B78042B01D100F05BFBC046C046BD4602B080BD0A22002080B582B000AF786039603A687B680021180002F0F6
:401BC00019FCC046BD4602B080BDC04680B500AF054B03221A60054B03221A60044B00221A60C046BD4680BD3000304030003140000E3F4080B500AF02F0B8FB03001B6802
:401C00000C2B00D1FEE7FEE780B586B000AF224B7B61224B3B61204B7B6135E03B691B68FB603B695B68BB603B699B683B6000237B600CE0FB681A68BB681A60BB680433FE
:401C4000BB60FB680433FB607B6804337B607A683B689A42EED13B69DB683B6000237B6008E0BB6800221A60BB680433BB607B6804337B607A683B689A42F2D13B691033A3
:401C80003B617B69013B7B617B69002BC6D102F073FBFEF715FBFEE7010000000065010080B582B000AF154B144A126801218A431A6000237B600FE07B68032B04D8104B49
:401CC0007A689200D35800E00E4B0F4A796889008B507B6801337B607B682F2BECD9FEF715FA0A4B00221A60044B044A126801210A431A60C046BD4602B080BD000010403D
:401D000000000000F51B000000000020C000002080B500AF044B044A1268802109060A431A60C046BD4680BD08010B4080B500AF044B044A1268520052081A60C046BD465D
:401D400080BDC04608010B4090B585B000AF78600F23FC1801F04DFD030023700B4B1B6807229343BB607B6807221340BA681343BB60064BBA681A600F23FB181B781800F2
:401D800001F03BFDC046BD4605B090BD00010B4090B585B000AF78600F23FC1801F029FD030023700A4B7A68D104E02292031140074A1268074802400A431A600F23FB1853
:401DC0001B78180001F019FDC046BD4605B090BD00010B40FFFFC7FF90B58BB000AF78602723FC1801F005FD03002370194B1A680C23FB181A60184B1A680C23FB185A60A5
:401E00007B68033B154AD35C1A000C23FB189A60134B1A680C23FB18DA601C23FB18114A1A600C23FA181C23FB185A600E4B1C22BA181A600D4B0E4A1A600B4B1B6827239D
:401E4000FB181B78180001F0D8FCC046BD460BB090BDC04608010B4000010B40B060010030001040B6EA000008001040040010401700008080B584B000AF78600023FB6046
:401E8000154B154A126801210A431A60134B144A1A60144B134A1268802109020A431A607B68002B12D01023FB600CE0012000F02FF900F019F8031E02D00023FB6005E027
:401EC0007B68013B7B607B68002BEFD1FB681800BD4604B080BDC04660F02E4078002E400220000010002E4080B582B000AF054B1B68012213407B607B681800BD4602B077
:401F000080BDC0460C002E4090B585B000AF7860114B1B6807221340022B16D00F23FC1801F067FC030023700C4B7A68032111400A4A1268032082430A431A600F23FB18D5
:401F40001B78180001F059FC02E0002000F0AEF8C046BD4605B090BD00010B4064F02E4080B584B000AF02003960FB1D1A7080239B05FB60FB1D1B781F2B02D9002000F0EC
:401F800095F8FB1D1B7810339B00FA68D3181B68BB60FB1D1B7810339B00FA68D3183A681A60BB681800BD4604B080BD90B587B000AF0200FB1D1A70BB1D0A1C1A70BB1DD0
:401FC0001B78032B02D9002000F070F8FB1D1B781F2B02D9002000F069F8FB1D1B7803221340DB0006337B611323FC1801F001FC03002370FB1D1B789B08DBB29B00144AD7
:40200000944663441B68FB6003227B699A401300DA43FB681340FB60BB1D1A787B699A401300FA681343FB60FB1D1B789B08DBB29B00074A94466344FA681A601323FB1862
:402040001B78180001F0D9FBC046BD4607B090BD00E400E080B582B000AF0200FB1D1A70064BFA1D12781F210A40012191400A001A60C046BD4602B080BDC04600E100E0B3
:4020800080B582B000AF0200FB1D1A70064BFA1D12781F210A40012191400A001A60C046BD4602B080BDC04680E100E080B582B000AF0200FB1D1A7001BEC046BD4602B000
:4020C00080BDC04680B582B000AF786009E00D4B1B68180001F084FB7B680B4A944663447B607A6880231B029A42F0D8074B1B687A685343180001F073FBC046BD4602B00A
:4021000080BDC046B80B00200080FFFFB00B002080B582B000AF0200BB1D1A80BB1D1B88044A12785343180001F05AFBC046BD4602B080BDB40B002080B500AF164B164AD3
:402140001268920092081A60144B144A1268920092081A60124B124A1268920092081A60104B104A1268920092081A600E4B0E4A1268920092081A600C4B0C4A126892002A
:4021800092081A600A4B0A4A1268920092081A60C046BD4680BDC0460800044008010440080204400803044008040440080504400806044090B583B000AFFC1D01F019FB88
:4021C00003002370074B074A126804218A431A6030BFFB1D1B78180001F00FFBC046BD4603B090BD10ED00E090B583B000AFFC1D01F0FFFA03002370114B114A12685200EA
:4022000052081A600F4B104A128892B21A600F4B0E4A126804210A431A600D4B1B683B600220FFF7B5FD30BF094B3A681A60FB1D1B78180001F0E1FAC046BD4603B090BD6F
:4022400000000B400C000B4052F1FF0F10ED00E000010B4090B583B000AFFC1D01F0C9FA03002370FFF768FF114B114A1268802109060A431A600F4B0F4A128892B21A60A8
:402280000E4B0E4A126804210A431A600C4B0C4A1268FF218A43F1210A431A6030BFFB1D1B78180001F0A9FAC046BD4603B090BD00000B400C000B4050F1FF0F10ED00E0FD
:4022C0002C000B4080B500AF0F4B0F4A126801218A431A600C4B0C4A126802218A431A600A4B0A4A126830218A4310210A431A60064B064A126807218A4301210A431A602A
:40230000C046BD4680BDC04600F02E4000FF2E4080B500AF0F4B0F4A126802218A431A600D4B0D4A126807218A4302210A431A60094B094A126830218A4320210A431A60BC
:40234000044B044A126801210A431A60C046BD4680BDC04600F02E4000FF2E4090B583B000AF00F093F8031E22D100F027F8031E1ED000F031F8031E14D1FC1D01F039FA16
:402380000300237000F01CFA0B4B0B4A1268520052081A6000F060FAFB1D1B78180001F02CFA05E0044B044A1268520052081A60C046BD4603B090BD04010B4080B500AFB3
:4023C000044B1B68002B01DA012300E000231800BD4680BD04010B4080B582B000AF054B1B689B0F9B077B607B681800BD4602B080BDC0460C020B4080B500AFFFF762FF9F
:40240000044B044A1268802109060A431A60C046BD4680BD00F02E4080B584B000AF78600C4B1B6801221340FB607B68002B02D0012B03D005E0FFF745FF06E0FFF768FF8E
:4024400003E00020FFF732FEC046FB681800BD4604B080BD00F02E4090B583B000AFFC1D01F0C7F903002370074B074A1268C02109020A431A60FB1D1B78180001F0BDF99F
:40248000C046BD4603B090BD00010B4080B500AF054B1A68C0231B02134001D0012300E000231800BD4680BD00010B4090B583B000AFFC1D01F09DF9030023700D4B0D4A16
:4024C00012680D490A408021C9010A431A60094B084A126808490A40802109020A431A60FB1D1B78180001F088F9C046BD4603B090BDC04600010B40FF3FFFFF80B582B02F
:4025000000AF78607B68022B02D90020FFF7CEFD064B1A687B68DB000133DA401300012213401800BD4602B080BDC04610020B4080B584B000AF786039607B68022B02D9FF
:402540000020FFF7B3FD7B681800FFF7D7FF031E16D10D4B1B687A68D200032191400A00D2431340FB603B6803221A407B68DB009A401300FA681343FB60034BFA681A606B
:40258000C046BD4604B080BD0C020B4080B582B000AF7860054B1A687B68DB00DA401300032213401800BD4602B080BD0C020B4080B582B000AF7860144B144A11687A683C
:4025C0000A431A607B680122134005D0C0460020FFF794FF031EFAD07A6880235B00134005D0C0460120FFF789FF031EFAD07A6880235B02134005D0C0460220FFF77EFF0F
:40260000031EFAD0C046BD4602B080BD10020B4080B584B000AF78600023FB607B68012B09D002D3022B0BD00EE00C4B1B681B041B0CFB600CE0094B1B681B0CFB6007E092
:40264000074B1B68FB6003E00020FFF72FFDC046FB681800BD4604B080BDC04600020B4004020B4090B585B000AF78600B23FC1801F0BFF803002370FFF708FF031E04D079
:402680000123FB60FFF712FF01E00023FB607B680D4A13407B600D4B0C4A12680C4911407A680A431A60094B1B68FB68012B01D1FFF7D2FE0B23FB181B78180001F09DF8E6
:4026C000C046BD4605B090BD0404040010020B40FBFBFBFF80B500AF344B1B68042213401FD0334B1B680422134017D0314B1B6804221340DA432E4B1B681A402C4B1A60EB
:402700002C4B1B68042293431A002A4B1A602A4B1B68002B02D0284B1B6898470420FFF7A1FF224B1A688023DB00134022D0204B1A688023DB00134017D01E4B1A68802331
:40274000DB001340DA431A4B1B681A40184B1A60184B1B68194A1A40164B1A60164B5B68002B02D0144B5B6898478023DB001800FFF778FF0D4B1A688023DB02134011D0BE
:402780000B4B1A688023DB02134006D00A4B9B68002B02D0084B9B6898478023DB021800FFF760FFC046BD4680BDC04610020B40C40B0020A4100020A8100020FFFBFFFFE5
:4027C00080B582B000AF0020FFF798FE031E03D01E4B00221A6024E00120FFF78FFE031E03D01A4B01221A601BE00220FFF786FE031E03D0154B02221A6012E0144B012283
:402800001A60124B00221A600020FFF7BFFE0200104B1A6000210020FFF78AFE0120FFF7C7FE0A4B1B681800FFF7F2FE03007B60C046064B1B681800FFF7EAFE02007B6877
:402840009A42F6D0C046BD4602B080BDC01000209C100020A010002080B500AF0A4B1B68002B0ED0094B094A126801218A431A60074B1B6819000020FFF75AFE024B002218
:402880001A60C046BD4680BD9C10002010020B40A010002080B582B000AF0200FB1D1A70064B064A126806491140FA1D127812030A431A60C046BD4602B080BD0803044026
:4028C000FF8FFFFF80B584B000AF0200FB1D1A700F4B1B68DAB20F23FB1810218A431A70FB1D1B781B01DBB210221340D9B20F23FB180F22BA1812780A431A70044B0F22CD
:40290000BA1812781A60C046BD4604B080BDC0460003044080B500AF044B1B68102213401B09DBB21800BD4680BDC0460403044080B500AF064B00221A70064B00221A7007
:40294000054B00221A7000F009F8C046BD4680BD132200200C2200201222002080B500AFC046BD4680BDC046B0B594B004AF78603E23FB1800221A802823FA183D4B1000A4
:40298000190014231A0001F02CFD3B4B1B78002B04D1FFF7CDFF384B01221A707B68002B5CD0364B7A681A603E23FB181B88002B29D11023FB181C22BA185A601023FB18DF
:4029C0002022BA181A601023FB1800221A812023FB181B221A802023FB181B225A802023FB1804221A711C23FB1800221A703E23FC180E23FA181023FB181100180001F08F
:402A000015FE030023803E23FB181B88002B29D13E23FC182823FD18AE231A0118491948194B0293194B0193052300932B0001F053FD030023803E23FB181B88002B11D13C
:402A4000134B01221A703E23FC18124B05221A2118000EF07FFE0300238003E03E23FB1801221A803E23FB181B881800BD4610B0B0BDC046E0600100C410002000220020EE
:402A8000C8000020D52D000079020000806D01000A220020FC60010090B585B000AF0200FB1D1A70FB1D1B78022B04D90E23FB1801221A804CE02A4B1B78042B43D1294BAC
:402AC0001B78DBB21A00042313403CD1FB1D1B78002B0DD1244B00221A82234B5B68C822D2001A80204B5B68C822D2005A8010E0FB1D1B78012B0CD11B4B96221A821A4B26
:402B00005B68C822D2001A80174B5B68C822D2005A80164BFA1D12781A700E23FC18124B18000CF02BFA030023800E23FB181B88002B0DD10B4B1B78DBB204221343DAB246
:402B4000084B1A7004E00E23FB180422FF321A800E23FB181B881800BD4605B090BDC0460A22002013220020180C00201222002080B584B000AF78600A00FB1C1A7000235E
:402B8000BB60BB68002B20D07B689A79BB681A700F23FB1800221A7012E00F23FB181B780133BA68D3180F22BA18127879688A5C1A700F23FB181A780F23FB1801321A7066
:402BC0000F23FB181B78052BE7D9C046BD4604B080BDC04680B582B000AF78607B681B789AB27B6801331B789BB21B029BB213439BB21800BD4602B080BDC04690B585B0CF
:402C000000AF78600F23FB1800221A707B689B890D22934232D17B68181D7A680F23FC18402300210EF0AEFD030023700F23FB181B78002B1AD17B685B681800FFF7CAFFA0
:402C400003001A00022313409BB2002B07D00F4B1B687968822252001000984706E00B4B1B6879680622FF3210009847084B1B78DBB201229343DAB2054B1A700F23FB18CE
:402C80001B781800BD4605B090BDC046002200201322002090B585B000AF78600F23FC187B681800FFF7AAFF03002370154B1B78DBB21A00012313401FD10F23FB181B7877
:402CC000002B16D00823FB1812229A707B689A890823FB181A800823FB180F22BA181278DA700823FA187B68110018680DF0AAFA03E07B6818680DF01DFBC046BD4605B0E9
:402D000090BDC0461322002080B582B000AF7860C046BD4602B080BD80B500AF044B00225A70034B00221A70C046BD4680BDC0461022002080B582B000AF7860C046BD4657
:402D400002B080BD80B500AFC046BD4680BDC04680B584B000AF78600E23FB1800221A707B689B79002B1CD10F23FB1800221A7012E00F23FB181B787A68D35C002B04D07A
:402D80000E23FB1801221A700BE00F23FB181A780F23FB1801321A700F23FB181B78052BE7D90E23FB181B781800BD4604B080BD80B582B000AF0200BB1D1A80C046BD4620
:402DC00002B080BD80B582B000AF7860C046BD4602B080BD80B588B000AF02003960FB1D1A70C74B1B78DBB201221343DAB2C44B1A70FB1D1B78712B00D960E19A00C14BCE
:402E0000D3181B689F461023FB1801221A701023FB1800225A701023FB18180003F0DAFB1023FB1807221A701023FB1801225A701023FB18180003F0CDFB0923002B01D087
:402E400001F00CFBB04B1B681800FFF781FF031E11D0AD4B1B68180001F010FBAA4B1B6800211800FFF784FEA74B1B6801211800FFF77EFE36E0A54B1B781A003F231A4004
:402E8000A34B1B789901FC231B010B401A43A14B1B781903F8235B020B401A439E4B1B785904FE231B040B401343BB61BB69DAB29A4B1A70BB691B0ADAB2984B5A70BB69BE
:402EC0001B0CDAB2954B9A70944B180001F0D6FA924B00211800FFF74BFE904B01211800FFF746FE00200BF01DFF0C23FB183F221A700C23FB1800225A700C23FB181800ED
:402F00000BF02EFF864B04221A70DFE03B681800FFF710FFDAE03B681A78824B1A70D5E03B687B617B691B78002B00D0C9E07B695B78002B0BD17C4B0022DA807A4B0022EC
:402F40009A80794B794A1A607B69774A5A606C4B1B78DBB201229343DAB2694B1A70B0E0674B1B78DBB21A002023134000D0AAE06F4B1B78102B00D0A5E06D4B0522DA70CB
:402F8000A1E03B681800FFF71DFF9FE03B681800FFF718FF624B02221A7097E0604B04221A7093E05E4B1B78022B00D18DE0544B1B78DBB21A000123134000D185E0504B14
:402FC0001B78DBB21A00042313400BD0544B03221A704B4B1B78DBB204229343DAB2484B1A7072E0464B1B78DBB21A00082313400BD04B4B04221A70414B1B78DBB2082207
:403000009343DAB23E4B1A705FE0454B1B78032B5BD1434B04221A7057E03B681B881800FFF7C6FE52E0434A3B681000190002231A0001F0D6F93B4B00221A703D4B1B78FB
:403040001A0013005B009B185B009E2292009A18394BD3180133394A1000190006231A0001F0BFF9FFF76EFE30E0FFF755FE2DE03B685B88162B05D81E23FB183A6852883F
:403080001A8003E01E23FB1817221A801E23FB1819883B681A8800231204120C1B0C1B04134318000DF0D8F810E03B681800FFF7F1FD0BE03B681800FFF726FE06E0C0461F
:4030C00004E0C04602E0C04600E0C0460C4B1B78DBB21A00112313400ED0094B1B78DBB201229343DAB2064B1A70154B1B68FA1D1278396810009847C046BD4608B080BD3C
:403100001322002010630100340C00207CF1FF0F7DF1FF0F7BF1FF0F78F1FF0F2C0C00200A2200200C220020C8100020A80B0020B80C002010220020806D01000422002057
:403140000022002080B500AF00F036F8C046BD4680BDC04680B500AF064B064A1268802109060A431A6000F019F800F01FF8C046BD4680BD0000244080B500AF064B1B78CF
:40318000002B04D1FFF7DEFF034B01221A70FFF7E1FFC046BD4680BDD010002080B500AF0920FEF757FFC046BD4680BD80B500AFC046BD4680BDC04680B500AF204B0022E6
:4031C0001A60204B204A1A60204B214A1A60214B00221A60204B00221A60204B1C4A1A601F4B00221A600920FEF74AFF03210920FEF7DCFE1B4B19000920FEF7B1FE1A4B22
:4032000000221A60194B00221A60194B00221A60184B00221A60184B00221A60174B00221A60174B10221A70164B00221A80164B00221A60154B00221A60C046BD4680BD7C
:4032400000002440600024407708008000032440070100800403244010032440000224400402244001380000C80E2440880E2440480F2440080F2440C80F2440880F2440AD
:403280001422002024220020342200201C22002080B500AF124B124A1268520052081A60104B00221A60104B00221A600F4B0F4A12680F490A401A600E4B00221A600E4BBC
:4032C00000221A600D4B10221A70054B044A1268802109060A431A60C046BD4680BDC04600002440680024406C00244060002440FF5CFFFF880F2440C80F2440142200209A
:4033000080B588B000AFF860B9607A600423FB612E4B1B78DBB2102B53D10920FEF7B0FE2B4B1B680122134002D00823FB6145E07B68FA22920053437B61264B00221A60E2
:40334000254B264A1A60264B264A1A60FB685B00FF221340FB60BB68002B03D11B4B24221A7006E0194B25221A70FB6801221343FB601D4BFA681A601C4B02221A60164BB7
:403380001A680823FF331340BB61194B1B68C0221340BA691343BB611423FB18180000F081F90200BB691343BB61BB69002BE6D0BB69180000F0F4F80300FB610920FEF710
:4033C00049FEFB691800BD4608B080BD1422002064002440080F2440000F244017030000C00F2440ED0F00004002244068002440400F244080B586B000AF786004237B61A3
:40340000194B1B78DBB220221340DBB2002B26D07B68FA2292005343FB60144B144A126820210A4001D0182200E010221A60114B1A681223FF3313403B610C23FB1818005C
:4034400000F030F902003B6913433B613B69002BEDD03B69180000F0A3F803007B617B691800BD4606B080BD142200206800244064002440000F244080B586B000AF7860A8
:40348000396004237B61164B1B78DBB220221340DBB2002B1FD03B68FA2292005343FB60104B7A681A60104B1A680823FF3313403B610C23FB18180000F0F4F802003B69B5
:4034C00013433B613B69002BEDD03B69180000F067F803007B617B691800BD4606B080BD1422002040022440000F244080B588B000AFF860B9607A600423FB61224B1B7819
:40350000DBB220221340DBB2002B38D07B68FA22920053433B611D4B1A680223FF331340BB611B4B1B68042213407B611023FB18180000F0B7F80200BB691343BB61BB693F
:40354000002B02D17B69002BE5D07B69002B07D0104B1B68DAB2BB681A700D4B0E4A1A60BB69180000F01CF80300FB61FB69002B05D1FB68002B02D1084B04221A60FB69A6
:403580001800BD4608B080BD14220020000F2440C00F244040032440ED0F00006800244080B584B000AF78600023BB607B68002B05DA80231B06FB600123BB605AE07B68FA
:4035C000C022134008D01023FB60314B00221A60304B10221A704DE07B680122134018D00123FB602B4B1B78DBB208221340DBB2002B0BD0284B1A688023DB05134001D1B1
:403600000123BB60234B10221A7033E00123BB6030E07A6880235B00134005D080235B00FB600123BB6025E07B680222134002D00223FB601EE00023FB607B68102213408A
:4036400003D0144B10221A7014E0124B1B78DBB208221340DBB2002B0CD00E4B1B78DBB201221340DBB2002B01D0252200E02422084B1A70BB68012B02D1FFF709FE02E017
:40368000064B074A1A60FB681800BD4604B080BD680024401422002060002440000F24401703000080B584B000AF78600A23FB1801221A800023FB607B681B68002B11D02F
:4036C0000A23FB181B881800FEF722FD7B681B685A1E7B681A607B681B68002B02D180231B06FB60FB681800BD4604B080BDC04680B582B000AF094B1B68DAB2FB1D0221D4
:403700000A401A70054BFA1D12781A60FB1D1B785B08DBB21800BD4602B080BD1004044080B582B000AF786000F04EF87B68180000F00AF8032000F015F800F03BF8C046F3
:40374000BD4602B080BDC04680B582B000AF7860034B7A681A65C046BD4602B080BDC0460000002090B585B000AF0200FB1D1A700623FB600B23FC1800F03BF8030023704A
:403780000B4B0B4A1268C0218A431100FA1D1078FA68904002000A431A600B23FB181B78180000F02AF8C046BD4605B090BDC04604E400E080B500AF024B10221A60C046D1
:4037C000BD4680BD00E100E080B500AF024B10221A60C046BD4680BD80E100E0000000000230800803D00138FDD1C046C046C0467047EFF3108072B6704780F310887047F4
:4038000080B582B000AF00233B60C04B1B68002B02D0BE4B1B689847BD4B1B680122134002D0BC4B00221A60BB4B1B78DBB220221340DBB2002B38D0B84B1A6880235B004A
:4038400013400AD0B64B1B889BB2C022920013439AB2B34B1A8001233B60B04B1B68012213400AD0AE4B1B889BB29022920013439AB2AB4B1A8001233B603B68002B14D01F
:40388000A54B1B78DBB201221340DBB2002B01D0012300E00223A24A128892B213439AB29F4B1A809C4B00221A709B4B1B78DBB220221340DBB2002B00D1A4E1974B1B683F
:4038C0001022134018D0974B10221A60924B1B78DBB201221340DBB2002B01D0012300E002238F4A128892B213439AB28C4B1A80894B10221A7090E1874B1B78DBB20822C1
:403900001340DBB2002B29D0844B1B68022213400ED0844B02221A60814B1B889BB28822920013439AB27E4B1A8001233B6015E0794B1B78DBB201221340DBB2002B03D0D9
:40394000754B25221A7009E0734B24221A70764B1B68002B02D0754B10221A606E4B1B78DBB204221340DBB2002B00D113E16A4B1B78DBB201221340DBB2002B5BD06C4BDE
:403980001B680822134033D06A4B1A686A4B1B681F211940694B1B68CB18D31A7B607B68082B02D908237B601EE07B68002B1BD1634B634A126863490A401A6008237B60E0
:4039C00001233B6010E0604B1A685C4B1B68D2185E4B1B68DBB21370584B1B685A1C574B1A607B68013B7B607B68002BEBD11EE04F4B1B680422134019D0534B1A684F4BE8
:403A00001B68D218514B1B68DBB213704B4B1B685A1C4A4B1A60494B1A68464B1B689A4203D24B4B04221A6001E001233B60494B494A1A60AFE0394B1B680222134032D0EB
:403A4000384B02221A60454B1B681F221A40434B196880231B020B4001D0012300E00023D2183F4B1B689A1A3D4B1A603C4B1A683C4B1A602A4B1B889BB2842292001343BB
:403A80009AB2274B1A80384B374A1268802149020A431A60344B344A126834490A401A6001233B6077E0324B1B681022134067D020E02B4B1A681C4B1B689A4221D21A4BDD
:403AC0001B685A1E264B1B689A4205D1294B40221A60164B40221A60274A284B1968204B1B68CB181B78DBB213601D4B1B685A1C1B4B1A60194B1B681F221340082BD8D137
:403B000000E0C0461B4B10221A6044E0D41000208C0E2440880E2440142200200C0F244024220020000F244020220020880F2440CC0F2440302200200803244034220020CC
:403B400060002440FFFEFFFF282200204003244068002440C00F2440ED0F000008022440182200201C22002004022440FFFFFEFF8C0F2440800F24404002244038220020DD
:403B8000284B1B684022134005D0274B1A68274B1A6001233B603B68002B3ED0244B244A126824490A401A60234B00221A60234B00221A60224B1B78DBB202221340DBB2DD
:403BC000002B15D01F4B1B78DBB201221340DBB2002B01D0092300E00A231B4A128892B213439AB2184B1A80164B60221A7014E0164B174A126820210A4001D0182200E0FE
:403C000010221A6009E00F4B1B78DBB210221340DBB2002B01D1FFF73BFBC046BD4602B080BDC0468C0F2440182200201C22002060002440FFFEFFFFC80F2440880F244090
:403C40002C2200201422002024220020680024406400244080B582B000AF78600A00BB1C1A80BB1C1A887B681A60C046BD4602B080BDC04680B582B000AF78600A00BB1C7A
:403C80001A80BB1C1A887B681A60C046BD4602B080BDC04680B584B000AF494B1B78DBB21B02484A1278D2B21343FB60464B1B78DBB21B02454A1278D2B21343BB60BB685D
:403CC000434A934207D1FB68072B04D1414BBB600423FB6009E0BA68D4231B019A4204D1FB68042B01D13B4BBB603B4BBA681A603A4BFA681A603A4B1B78DBB21B02394A5B
:403D00001278D2B21343FB60FA6880239B019A4202D0FB68002B01D1334BFB60334BFA681A60334B1B78DBB21B02324A1278D2B21343FB60FB68304A934206D0FB682F4A88
:403D4000934202D0FB68052B01D12D4BFB602D4BFA681A602C4B1B681B097B602B4B1B68AA2B29D17B68012B26D9214B1B78DBB20E2B21D1264B1B78DBB29BB21B0299B244
:403D8000244B1B78DBB29AB2BB1C0A431A80224BBA1C12881A60214B1B78DBB29BB21B0299B21F4B1B78DBB29AB23B000A431A801C4B3A0012881A60C046BD4604B080BD2B
:403DC000D9F0FF0FD8F0FF0FDFF0FF0FDEF0FF0F580B0000580D00006C002E4074002E40DBF0FF0FDAF0FF0F0220000078002E40DDF0FF0FDCF0FF0F0F0F00000505000043
:403E0000050F000080002E40EC0F00F0E00F00F06DF2FF0F6CF2FF0F84002E406FF2FF0F6EF2FF0F94002E4080B582B000AF0200BB1D1A80BB1D1B881800FEF769F9C04692
:403E4000BD4602B080BDC04680B582B000AF78607B681800FEF736F9C046BD4602B080BD80B500AF00F0ECF8C046BD4680BDC04680B500AF00F0F0F8C046BD4680BDC04639
:403E800080B500AF00F0E8F8044B180000F0A2F8032000F0ADF8C046BD4680BD7140000080B500AF034B180000F080F8C046BD4680BDC0467140000080B500AF0223FF33C4
:403EC0001800BD4680BDC04680B582B000AF78602B231800BD4602B080BDC04680B582B000AF78602B231800BD4602B080BDC04680B582B000AF78602B231800BD4602B0C3
:403F000080BDC04680B582B000AF78602B231800BD4602B080BDC04680B582B000AF78602B231800BD4602B080BDC04680B582B000AF78602B231800BD4602B080BDC0465A
:403F400080B582B000AF78602B231800BD4602B080BDC04680B582B000AF78602B231800BD4602B080BDC04680B500AF2B231800BD4680BD80B582B000AF0200FB1D1A7065
:403F80002B231800BD4602B080BDC04680B582B000AF786039602B231800BD4602B080BD80B500AFC046BD4680BDC04680B582B000AF786000F050F87B68180000F00AF881
:403FC000032000F015F800F03BF8C046BD4602B080BDC04680B582B000AF7860034B7A681A67C046BD4602B080BDC0460000002090B585B000AF0200FB1D1A700623FB6072
:404000000B23FC18FFF7F5FB030023700B4B0B4A1268C0218A431100FA1D1078FA68904002000A431A600B23FB181B781800FFF7E4FBC046BD4605B090BDC0460CE400E0A2
:4040400080B500AF034B802252011A60C046BD4680BDC04600E100E080B500AF034B802252011A60C046BD4680BDC04680E100E080B500AF11F058FFC046BD4680BDC046DC
:40408000002243088B4274D303098B425FD3030A8B4244D3030B8B4228D3030C8B420DD3FF22090212BA030C8B4202D31212090265D0030B8B4219D300E0090AC30B8B428F
:4040C00001D3CB03C01A5241830B8B4201D38B03C01A5241430B8B4201D34B03C01A5241030B8B4201D30B03C01A5241C30A8B4201D3CB02C01A5241830A8B4201D38B0250
:40410000C01A5241430A8B4201D34B02C01A5241030A8B4201D30B02C01A5241CDD2C3098B4201D3CB01C01A524183098B4201D38B01C01A524143098B4201D34B01C01AC4
:40414000524103098B4201D30B01C01A5241C3088B4201D3CB00C01A524183088B4201D38B00C01A524143088B4201D34B00C01A5241411A00D20146524110467047FFE720
:4041800001B5002000F0F0F802BDC0460029F7D076E7704703460B437FD4002243088B4274D303098B425FD3030A8B4244D3030B8B4228D3030C8B420DD3FF22090212BA97
:4041C000030C8B4202D31212090265D0030B8B4219D300E0090AC30B8B4201D3CB03C01A5241830B8B4201D38B03C01A5241430B8B4201D34B03C01A5241030B8B4201D3C3
:404200000B03C01A5241C30A8B4201D3CB02C01A5241830A8B4201D38B02C01A5241430A8B4201D34B02C01A5241030A8B4201D30B02C01A5241CDD2C3098B4201D3CB018B
:40424000C01A524183098B4201D38B01C01A524143098B4201D34B01C01A524103098B4201D30B01C01A5241C3088B4201D3CB00C01A524183088B4201D38B00C01A524117
:4042800043088B4201D34B00C01A5241411A00D201465241104670475DE0CA0F00D04942031000D34042534000229C4603098B422DD3030A8B4212D3FC22890112BA030ABD
:4042C0008B420CD3890192118B4208D3890192118B4204D389013AD0921100E08909C3098B4201D3CB01C01A524183098B4201D38B01C01A524143098B4201D34B01C01AE4
:40430000524103098B4201D30B01C01A5241C3088B4201D3CB00C01A524183088B4201D38B00C01A5241D9D243088B4201D34B00C01A5241411A00D20146634652415B1092
:40434000104601D34042002B00D54942704763465B1000D3404201B5002000F005F802BD0029F8D016E770477047C046014B18687047C046741000200E4B70B500251E0014
:404380000D4CE41AA410A54204D0AB00F35898470135F8E712F0A2F8084B00251E00084CE41AA410A54204D0AB00F35898470135F8E770BDE8640100E8640100E86401005C
:4043C000F064010030B50024A24208D0035D651C0C5DA34201D0181B02E02C00F4E7002030BD002310B59A4203D0CC5CC4540133F9E710BD03008218934202D019700133C1
:40440000FAE77047134A1088810703D08107890F401A001D11791030484381B25088820703D08207920F801A001D800040180A494030098980B2CA0701D0503080B289071D
:4044400006D504495422091F09785143081880B270470000C40C0020E410002010B501F065FF10BD10B501F067FF10BD10B501F079FF10BD10B500F05BFA10BD10B507499D
:40448000044609780220002907D1204601F0C2FF002802D120460AF057FD10BD600E002070B504460120002C12D02368002B0FD0616800290CD0074D0622288920811846BF
:4044C0002968FFF78EFF6968606809780170002070BD0000E4100020FFB585B0002768460E9D07734F481C460078002802D0082009B0F0BD10990F9801900095029105A82A
:4045000007C800F007F90028F2D16946264603AB84460873002C19D0002115E08A00B75A082F09D990198078002805D0083FB7521878401C187005E0002914D00027B75260
:4045400090198770491CC9B2A942E7D360460028CED10F98002809D0109901F097FA002804D00120C4E701208446EFE701F0FAFE2D480021416081600599016021888180A3
:40458000022D07D3A1798171A17AC171A1890181218A418100211EE0481C19E082008B00A75AE65ABE46BE4211D26F463E80B4461E190296B678BE7001967646E65217197C
:4045C000029EBB78B3706646A652019EBE70401CA842E3D3491CA942DED3134822460C3000906846037B0799069800F01BF90028B8D168460B4C007B60700B480C3001F0D9
:40460000E1FE0028AED1084907480C3107F0FAFC0028A7D107F014FD0028A3D10121217066E70000BE0C0020D8100020F8B5054636480F460078002802D002242046F8BD76
:40464000002F60D000243249002D16D02A89D0070DD02868002808D003881B3BE12B04D24088FB2801D81B2801D2012409E0900707D56868002804D1F7E700200881086058
:404680004860002CDAD122482E8906811F481B21801D01804180042101711C490020891C0870F00705D019480622801D2968FFF798FE1749B00703D56A6814481278827070
:4046C000124D0E46AD1D281F0D60486001F0C8FE284601F0B7FE30890EF08CF930890DF07DFB28880DF080FB30890EF0EDFA03461033FFF787FE1F21C0188901401838802D
:40470000A91F88809AE7012498E70000BE0C0020E4100020FFB58446384F1C460020BB883F78054602460646002F11D100290ED0029999420BD36146002908D0002C06D010
:404740000A99002906D02E4B0B99994202D2012004B0F0BD002144E0AB001F19BF78002F3BD0E35A002B38D07B43591889B22B0000F04AF8050410161C253100A77823880E
:40478000BC46FF27233BEB37BB4222D26346032B1FD322E0A388002B1FD0302B19D31CE02389002B19D0282B13D316E0A289002A13D01346134F233BBB420AD20DE0268A57
:4047C000002A0AD033460F4F233BBB4201D2964203D901200EE0002001E000280AD16D1CEDB2099B9D42B7D31C2463435B1802998B42ACD89642AAD8AAE70000BE0C00209A
:4048000079020000BAFF000030B47446641E2578641CAB4200D21D46635D5B00E31830BC18470000FFB583B0002469460C801F4606468C80002806D00598002803D004984F
:404840003043800701D0012466E0002FFBD03449049809888842F6D3FFF722FBFFF708FB00F012FC002855D100F07AFD002851D12C49084601F03EF905042D0C4AD12A4808
:404880000499066081800021C18007810C98007AC00704D0684601F07EFD040007D10C98007A800703D501A801F07EFD0446BF1DFEB2002C20D13146059800F05DF8040079
:4048C0001AD10EF00FFA040016D16A461088928808368518144AF1B29088D288AEB29319984207D3401B801A80B201F0F3FB050007D000E0FF25012400F05EFA002D04D017
:4049000008E0F8B200F01CF9F6E700F081FA07490120087000F0CAFB204607B0F0BD0000C20C0020654A0000F0100020CA0C002010B503480078012801D101F06DFA10BDD5
:40494000CA0C002070B5084B0446DA889E8800205518B54206D81D68AA182260DA885118D98070BD032070BDF01000200148008970470000F0100020F0B587B007460D46E6
:4049800000208900009006916846FFF7DBFF844600285DD1304800990160002117E02E4B88001A680629115406D22C4C0419667882185670628805E0C419203CA67A82187B
:4049C000567022891B68C018491C4280C9B2A942E5D300242DE0601CC2B2059025E01E4FA30039689600581840887118039604904E88B04217D938466F46FE80B6464F788A
:404A00006E4677710297049F4F800168039F5E18767879184E700168764659184E800068029F18184770521CD2B2AA42D7D30598C4B2AC42CFD36046002809D1684606999D
:404A4000FFF780FF8446002802D1054900980860604607B0F0BD0000CC0C002010650100D00C00207047000010B5002809D005494A68002A05D0011F08788000105801F045
:404A8000D7FA10BDCC0C002010B50446FFF76EFFC0B2801DA0420CD307484068002808D0A100405801F036FA002801D00470001D10BD002010BD0000CC0C0020F8B5164688
:404AC0000D460446FFF752FFC0B2801DA04203D20020C0430090F8BDB2B2E9B2684601F03FFA0099481C03D0024AA000526811500098F8BDCC0C0020F8B50746FFF736FF8C
:404B0000801DC6B20A49002005460C680DE06178002907D06188B94202D32078FFF7B4FF002804D1241D6D1CEDB2B542EFD3F8BDCC0C002010B5002801D0FFF795FF10BD8D
:404B400070B506460948002504680BE06178002905D062882078121D0023FFF7AFFF241D6D1CEDB2B542F1D370BD0000CC0C0020FFB581B00A9F16000C4620D000F0F2F89F
:404B8000054604281BD0002F0CD03846FFF7B4FF20492A0151184860002810D03A460499FFF71FFC1B4928010E504618778101980570200406D47D20C000444304E0FF2052
:404BC00005B0F0BD6404640C00F0BAF80746042807D000F04FFAA0420BD800F04BFA201A03E0204600F0AAFA0020F06035720020E6E700F03FFA009000F0B6FA0098012128
:404C0000001B009000F0ECF802493A0151180098C860E6E7FC100020F8B5060116483418217A042903D0E068002802D017E00020F8BD00F01FFA054600F096FA00F0A0F8EA
:404C400004280CD001010C480F18F8680021451900F0C6F80020F860284600F06FFA6068054D002801D0FFF765FF042020720020A8516081E060DAE7FC100020FEB50026C0
:404C80006A46304601232549050169180D7A042D02D0C96800291BD000211154401CC0B20428F0D300246846005D002830D01B4821010818418947680568029100210160AC
:404CC0004160042241810272C160002E02D015E01354E3E700F054F804280ED001010F4808180190C6680021304600F079F801980021C160304600F021FA0126002D07D073
:404D000038460299A847002F02D03846FFF712FF641CE4B2042CC6D3FEBD0000FC1000200EB5002005216A460090118150810348694600680EF03BFE0EBD0000D40C00200F
:404D4000074A0020010189180B7A042B02D0C968002903D0401CC0B20428F3D370470000FC1000200549002002015218127A042A03D0401CC0B20428F6D37047FC100020BB
:404D800030B50A4B04200A4C00210A011219157A042D06D0D268002A03D09A4201D808461346491CC9B20429EFD330BDFFFF0000FC1000207047000030B50020074C05467F
:404DC0000423020111190B72A5504D60401C4D81C0B2CD600428F4D330BD0000FC10002030B5094C00231A011219157A042D04D0D568002906D02D18D5605B1CDBB2042B4B
:404E0000F1D330BD2D1AF7E7FC100020002070471CB5002469460C70142001902346054A05480EF0C9FD04480068401C00D1FF2420461CBD8D4E0000D40C00203EB5124A7E
:404E40000146FF2000230124126800290DD0012914D0042908D104206946009308814B8110460EF0A4FD80B23EBD6846009304814381694610460EF095FDF4E768460093D8
:404E8000048143816946EBE7D40C002070B545890468416800890300FFF7B6FC08280509091E22282628002005F068FF1EE0022908D0C8B22A4621460CF0DCFE2046FFF7EF
:404EC00039FE13E002202A4621460CF0D3FE2946204600F00DF809E000200EF067FA05E02046FFF7CBFE01E0FFF75AF8002070BD014B0022DB681847D80C002070B544890A
:404F000005680089022803D0032809D0FF2070BD2246094C0023A46829460120A04708E0FFF7A4FA241DA2B200232946022006F01CFF002070BD0000D80C002070470000ED
:404F4000024800214160018041807047D80C002070B50C46002186B016460391012802D0022859D116E003A9012006F053FF01281BD1039D324621462846FFF732FA009557
:404F8000287801900220694608814E816846FFF7B5FF41E0214D002B686809D0049004A9022006F037FF01281DD0022006B070BD002812D0298840182146FFF712FA288806
:404FC0000024801980B228806988091D884206D12C801348FFF792FF03E00320E6E788421AD96C6018E004986860E278A378110219430B4A698000231060E3565360032355
:4050000013815181A1788170E178C1706178417021780170042028800020C7E7D80C00203C1100203EB515460C46022803D004280CD000203EBD009101900220694608819B
:4050400007484A8100680EF0B2FC07E00CF012FE044B0022DB6829462046984701203EBDD40C0020D80C0020014AD16090607047D80C0020034801688068081A0A214843EC
:40508000000970474811002010B5FEF7F9FE482204490548FFF7A5F903490120C870002010BD00002C6501004C15002010B5FEF7D7FE10BD70B5134C2368002B08D0207BC0
:4050C0001149C20705D04008400020738868A08070BD88680B4AA18880B29268814203D90A4D691A091802E0814202D2411A5118A160A080A0689842EAD30EF075FC00F0D0
:4051000013F870BD48110020C0102E40FFFF000010B508461946FFF7A7FF10BD704710B5FFF780FF10BD000003480021016041608160C1607047000048110020024610B53C
:40514000FF20002A0CD0FFF7EFFF064C0321207B0843207310010A21FFF718F82060002010BD00004811002000B504480A21806848430209FFF7D8FF104600BD481100200C
:405180000248007B8007C00F704700004811002010B54B490868002802DA4A4B01221A70022290430860484800694549C00B4031096A0246C907C90F0A4259D0012000F08A
:4051C000EDFA3F480E216C30FEF754FD3E4820218430FEF74FFD3C4814219C30FEF74AFD3948FF21C131A430FEF744FD3648FF212F31B030FEF73EFD33483449BC30FEF72F
:4052000039FD31483249AC30FEF734FD30492E48491CB430FEF72EFD2B482E49B830FEF729FD29482C49CC30FEF724FD26482B490830FEF71FFD24482949A830FEF71AFD18
:40524000214828498830FEF715FD1F4826498C30FEF710FD1C481921C9029030FEF70AFDFEF718FDFEF728FEC0B2022812D01FE000290BD0002101420AD0114801216030ED
:40528000FEF7F8FC0120FEF7DFFD97E70121F2E7FF2010BD15491648FEF7ECFC14481549001DFEF7E7FC124800210830FEF7E2FC54200449C043891C0870002010BD000012
:4052C00000F02E40E80C002000002E40320300002F3F00003102000010520000EC160000FA12000031D000003AE300009956000080012E40F80F000070B50646581C80B26E
:4053000045086D00002408E0304600F0C1F81055000A1119A41C4870A4B2AC42F4D3D80705D0D0182038D15CC47FD454C17770BD30B50A4C002100195B1E07E0541864785E
:405340002502545C2C430480891C89B29942F5DB994201D1515C018030BD000000102E4010B5FF2000F01AFA0F49FF2048700E481021801D41800121417001700A490020DF
:40538000C91C4870FFF704FF04000AD100F02EF907210648FEF75EFC044807211830FEF759FC204610BD0000E80C0020CC112E4070B5002405465B1E0AE0284600F068F84F
:4053C000010A161971702D1D1055A41CADB2A4B29C42F2DB9C4203D1284600F059F8105570BD000070B500210A4D5B1E0AE0541864782602545C344346193480001D891C64
:4054000080B289B29942F2DB994202D1515C4019018070BD00102E40F0B50599091FCFB200217E1E0BE0541864782502545C2C43164D45192C80001D891C80B289B2B142C6
:40544000F1DBFC0712D01C78515C24020F4A0C4381180C809C785D78001D210280B2294384182180001D80B2D9780CE059781A7809021143054A84182180001DD9789B78E8
:40548000090280B2194380180180F0BD00102E40014940180088704700102E4010B50B490020487000F0A2F8002000F09DF9002000F08AF907210648FEF7CCFB0448072156
:4054C0001830FEF7C7FB002010BD0000EB0C0020CC112E4010B50C48007801280FD100F091FF00F0DDF8002804D10848016A490849000162054802213030FEF7BBFB024904
:405500000020C91E087010BDEB0C002040F02E4010B50B46062812D006DC01280CD0032801D1FFF7BBFF10BD0A28FCD00B28FAD105480078107010BDFFF712FF10BD1146AA
:40554000184600F06DF910BDEE0C0020F8B5244DAC6A0127A007234E002816DA307806280ED1286A384328621F480069F903084381B21D481030FEF77DFB042000F00EF941
:40558000174802212830FEF765FBE00718D000F0C9FF01280FD1002001F016F8062000F0FDF81049FF20C91E48707078002802D1686B384368630A4801212830FEF74AFBE9
:4055C000E0050BD53078042802D1052000F0E6F80348FF2101312830FEF73CFBF8BD000040F02E40EB0C002000002E4010B503212348FEF73FFB0120FEF716FC20483038D8
:40560000406A204C80076178800F890001431C480C38FEF72FFB6078002808D0401E022181401820FEF79CFEC000083800E0B82081B21548FEF71EFB1348032109021438C4
:40564000FEF718FB10481149B830FEF713FB612189010F48FEF70EFB0D480321001FFEF709FB0C490C48FEF705FB0B480B496038FEF700FB084801218838FEF7FBFA10BDDD
:4056800070F02E40EE0C0020D8102E4090890000041E2E40FF0F000058122E4020900000044800684007400F022801D0002070470120704700010B4000B5FFF7F1FF00286A
:4056C00005D009480168C908C900016000BD0748016A490849000162054801690122D2039143016100BD000000010B4040F02E4000002E400849087806280BD148780749C7
:40570000002803D1486B400840004863C86A01221043C86270470000EB0C002040F02E400148007870470000EB0C002002484078022800D001207047E80C002000B503001A
:40574000FFF762F8080D050D0B070507090D012000BD032000BD042000BD022000BDFF2000BD0000074A9168D26889B2064B92B2994204D105498A4201D1012100E0002111
:405780000170704780002E4033D000003FE300000149487070470000EB0C002010B50446FEF766FB072C01D9FF2C01D102480470FEF756FB10BD0000EB0C00200149487085
:4057C00070470000E80C002010B5064A012805D01921C9021046FEF74DFA10BD1D21C902F8E7000090002E4010B50A4A141D012808D009491046FEF73DFA08492046FEF7B6
:4058000039FA10BD04491046891CFEF733FA0349491DF3E788002E4031D000003AE3000070B50C460546FEF747FBC0B202280E49287804D0FF2810D04C280CD810E0FF2888
:4058400009D10A4AD0680004800F032801D0087807E09069000A553803E00878207070BD4F382070087070BDEA0C002000002E40F0B50122002834D0002932D0042442064D
:4058800000D00524792342065B06D21800D0641C034600221EE00C2516466E43124D00277519AF72104F002ABB51696007D0661EB24209D10D4E86197606760E05E05E06CA
:4058C000760E8027BE1B00E080269B198919521C2E81D2B2A242DED303480549006B002288611046F0BD0000D413002079020000F40C002018B50020694608700A4800690F
:4059000000280ED0132149014018047E684604704F21C900054800F059F8A04201D0012018BD002018BD0000F40C002058110020074900200C2242435218927A012A05D040
:40594000401CC0B20628F5D30020704701207047D4130020F8B50E000446154609D0194F19497868A04202D94018A04201D38D4201D90120F8BD31462046FEF723FD002866
:405980001ED02A4631462046FEF72BFDE8B200210C224A43D21913895568EE18A6420BD90126641B1B1B9672834209DA1469C01A044AC0B220329676491CC9B20629E7D339
:4059C0000020F8BDD413002079020000034610B50020024604E09C5C2018521CC0B292B28A42F8D310BD000070B500F05FF8084C064A216907480D46FEF7F3FC0549284662
:405A0000FFF736FFFFF776FF207070BD79020000F40C002058110020002070470020054A002902D0012902D002E0906000E0D06000207047F40C002070B5084C15460846B7
:405A40000549E26889182A46FEF7CBFCE0684019E06028B270BD000058110020F40C00203EB50A226946FFF7E7FF044606480A2200686946FEF7A6FC002802D00020C043F7
:405A80003EBD20463EBD0000F80C0020002802D0044A914201D2FF20704703494A6108610020704779020000F40C0020024800218160C16070470000F40C002070B5074C14
:405AC00015460548A26880182A46FFF743FFA0684019A06028B270BD58110020F40C002010B503490A220968FFF7E8FF10BD0000F80C002010B50F4A002313600E4A1360A8
:405B00000E4B18600E4801600E49012008600E490860000290600E490C4808600D4914300860FF381538506000F0BCF800F0CAF9002010BD280D0020100D00203C0D0020C4
:405B4000400D00202C0D00201C0D00201C150020200D0020340D0020014610B50020002910D0094B1A689C685118A14209D25868196080188A0704D08A07920F891A091DB0
:405B8000196010BD002010BD100D0020F8B50024164E671E321F3D463168136806E01422624310328A58521C1BD0641C9C42F6D36A1C14D02C461422544322460C32885047
:405BC0000C214843FFF7C8FF3168002808510AD031680020103408517068401C70602846F8BD2546E4E73846F8BD0000200D0020F3B50026F64381B000281BDB1E490968DB
:405C0000884217D80299002914D01B4F142204463F1D54432546396810354859401C09D0FEF726F938682F1F4159C359994203DBFEF716F93046FEBD21460831009146588A
:405C400001590C20704308180C220299FEF7C9FB0948761C001D0068C159B14200D100260549009A091D865008684159491C4151FEF7F6F80020FEBD1C0D0020002803DBEB
:405C800007490968884202D90020C043704704491422091D0968504310300858704700001C0D0020F0B500200D4A451E0346171F50600FE014260146714314680E1DA351EA
:405CC0000C461668083433511668083435511468401C635039688842ECD30020F0BD0000200D0020F3B50026F64381B0002841DB2349096888423DD8029900293AD0204F90
:405D0000142204463F1D54432546396810354859401C2FD0FEF7ACF83868415900292BD0211D009146580C21005971430F46C1190C220298FEF755FB11480021001D0068CA
:405D4000761C00590C34C0190160416081600C48001D00680159B14200D100260849009A091D865008684159491E4151FEF778F80020FEBD3046FEBDFEF772F8FAE7000084
:405D80001C0D0020FEB504460D4600201E49089E0860471E009001900290002C11D0486885420ED2002A0CD0002E0AD0642E08D808460C3001681C2068430C18207A0028F9
:405DC00001D03846FEBD0120226020721846FFF7DDFE6060401C13D06681A6810A4827610C3067610179A94200D205710021684601810A462846029B00F040F82846FEBDA0
:405E000000202072DDE70000280D002038B50124009400F039F838BDFEB50027164EFF433D4600240EE01C20316860430818017A002906D04068FFF721FF002801D0254692
:405E400003E0641C3079A042EDDA681C12D01C2130684D434419FEF70BF869466068FFF741FF0546FDF7FCFF002DD9D1216868468847D5E7FEBD0000340D002038B50024A0
:405E8000009400F001F838BD1FB500220C49541E0A60002811DB496888420ED808491C220C31096850430818406801A9FFF7A0FE401C02D0002004B010BD2046FBE70000E7
:405EC000280D0020F0B50021114A4D1E174611710C3F0B46BD6016E008461C2460431668041D355114680646235014680836A3551468361DA353044616680A343353183057
:405F00001468491C255078688142E5D30020F0BD340D002038B500210091002811DB0F49097888420DDA0D4D04010C3529680859002807D0201D0818694600F06FF9002828
:405F400001D0002038BDFDF793FF28680F34015D491E0155FDF784FF009838BD440D0020F7B582B0002502986E1E06602E48D21C024017462D4A2C4610460C38017810684C
:405F800005E02301C358002B0FD0641CE4B28C42F7D3711C28D03401211D40180191039900F02AF900281FD101E02646F1E71F48016820460C300F521C4803990268204694
:405FC0000E30115419480399026820460F3011540398784300F0A0F8144900280968085102D00024009011E001251AE00F48016801980818009900F02CF9002801D0012583
:4060000002E00098C0190090641CE4B203988442ECD3002D05D10298066004480179491C0171284605B0F0BDFCFF0000500D0020F8B50D4600216A468C461180002839DBEF
:4060400023490978884235DA214B04010C3319680A59002A2ED020460C300B5A801C0E5C184670438018954224D3854222D2002006E007465F43BF18AF4206D0401CC0B2FE
:40608000B042F6D36046002814D0114E271DC8190C366A46294600F006F900280AD168460088012808D030682946C01900F0D1F8002803D00120F8BD0020F8BDFDF7D8FE5C
:4060C00030680F34015D491C0155FDF7C9FEF3E7440D0020F8B50F46002400F031F8002817D10C4900220B460C334A600EE021011D680E466A501D680C36AA53B61C1D68E8
:406100000F31AA551D68641C6A54E4B2BC42EED31A71F8BD440D002000280BD0C01C074A81085068890053884118994203D89368516018187047002070470000440D002098
:40614000F8B5064600200F4D009029700C0121466846FEF7F7FB00280CD129460C3100980860301B001F84B221466846FEF7EAFB002801D0FF20F8BD6C800098A8600020BF
:40618000F8BD0000440D0020F8B5002827DB19490978884223DA174C05010C342168485900281CD028460C30085A009028460E300E5C401C0E5420682F1DC01900F064F8E8
:4061C00000280CD12068002445590EE0094829460C300068C01900F03CF8002801D00120F8BD00982D18641CE4B2B442EED30020F8BD0000440D002030B50D4604000BD02B
:40620000A800FFF789FF6060002805D000202570C0436080002030BD012030BD70B50D46040005D0002D03D00220205E002801DA012070BDFDF71CFE0221615E6068890045
:40624000405828606088401E6080FDF709FE002070BD70B50D46040007D0002D05D002212078615E401E814201DB012070BDFDF7FFFD6088401C00B26080616880000D500A
:40628000FDF7EEFD002070BD10B5040009D0227800216068FEF7AEF80020C0436080002010BD012010BDF0B500231D46002802D00224045F0AE00120F0BD46689F00F65912
:4062C0008E4201D1012503E05B1CDBB29C42F4DA15700020F0BD00000148007870470000580D00207CB505460024FEF7BFF8A8796946087000A8062229460130FEF771F892
:406300000021684605F000F80C2806D0072806D01F2806D0122806D006E0022404E0042402E0272400E0012420467CBD01480121417270475416002010B502280BD0032828
:4063400002D0042809D102E000F0CCF905E000F077FAFF2801D100F087FAFFF7E1F9FFF7EDF910BD10B500F0AFFAFFF7D9F9FFF7E5F910BD70B504460025FEF777F8002C9A
:4063800006D0A079012803D8214602F02DFE00E00125284670BD01460120002902D05020088000207047000001460120002905D00348542200785043088000207047000002
:4063C0005A0D002010B502460D49FE204870032410460DF00FFE002810D10DF0B3FD00280CD105F073FD002808D100F07DFC002804D105F02FFA002800D10024204610BD61
:40640000580D002002480021018280210180704700102E4070B50025044600280ED0A07901280BD8FEF722F8A0790028204602D003F0B6F903E003F08BF900E001252846DB
:4064400070BD0000014610B50120002904D006220248FDF7C6FF002010BD0000640D002001460120002903D00878024908700020704700005A0D0020F0B5002493B00E46B7
:40648000054627461094FDF7F1FF00F059FE002836D0002D0CD0EA7F1F2A01D9012407E000A829460130FDF79CFFE87F69460870002E0FD0002C29D1F27F1F2A01D9012435
:4064C00024E008A831460130FDF78BFFF07F08A9087001E0002C19D10020002D05D011A9684600F06FFE10900120002E05D011A908A800F00BFF074601201099394301D0C0
:40650000022403E0002801D000F0D6FD204613B0F0BD10B5FFF704F9012801D1FFF706F910BD00000148007A704700005416002038B504460120002C20D0617801291DD8DB
:4065400000290BD0FF25E535FDF790FF0C4828180088C0B22070072803D00EE0FF25CD35F2E70020694608706846FFF7FBF869460878012801D108202070002038BD000074
:4065800000102E40014A002192681047580D002008B500226B461A7026280CD0094A342852680BD0352805D1900703D50021352005F068FD08BD19462620F9E7D007F9D037
:4065C0003420F5E7580D0020014908727047000054160020F8B504460120002C26D06178012902D92278092A20D8002905D0FF25E5352078092803D004E0FF25CD35F8E743
:4066000008202070FDF732FF2078114F114E08280DD00020FFF7E8F870780128207810D00D4969180880FE2070700020F8BD0120FFF7DAF80720B881054920318880012057
:40664000F2E7B8810248217820308180EBE70000C0112E40580D002000102E4070B50E46050001D0002400E00C4C002C11D0E28A500609D5D107C90F022003F02FF9E08A11
:4066800040218843E08204E0D107C90F012003F025F93146284602F003FE70BDB4150020F8B50546002004460D4E009013E022466946284601F0FEF80098002801D00DF05E
:4066C0007BFCA878214602F0CDFBA878214602F0BBFB641CE4B2308AA042E8D8F8BD000080160020F8B54E4CFFF71AF8012847D14C480078002843D002F05AFD00283FD07F
:4067000004F0A4FA00283BD0474E7078C00703D000F01CFD012833D0307E00287DD17078002500285BD0000706D540488089070B00F02EF9384370D13B484178684604F08E
:40674000CBF821793A4CA2788918C9B2814262D802F02EFD002860D0344860300789324E203602F06FFB6846008802F099FB02F035FC30490988884203D10120FFF70EF81C
:406780004BE02D49012008702748807B00281DD0002F1BD04036F07E002817D123486030008821494000C031498981420AD26078002807D103F0C0F82049088A03221202CC
:4067C000104308822078002800D0257002F09EFB0120FEF7DDFF00F025FC174C15E002F0E7FC002819D0102402F0F8FB214602F0E1FA02F055FB104C0120207002F086FBBC
:406800000020FEF7C5FF00F00DFC20780128B4D1FEF752FF25700020F8BDFF20F8BD00008C150020E80C002094150020A0102E407E0D0020900D00206A0D0020E0112E40A2
:4068400010B50848FF244078002809D102F0B0FC012805D1FEF73EFE0720FEF79FFF0024204610BD9415002038B5FEF759FF012801D0002038BD02F09BFC00280AD0114C4D
:406880006078C00703D000F061FC012802D0207E002801D0FF2038BD617800290FD0684604F01AF8022806D96846008802F0F8FA012002F035FB0320FEF770FFD9E7002011
:4068C000F7E700009415002038B51E4CFEF728FF042813D0052811D0062812D003282AD007280AD100206946087002460120FEF70FFEFEF715FF0128FBD138BD00F0B2FBE0
:4069000038BD02F025FB00F0ADFB02F0A1FB8007800F0228F4D10C4841880029F0D05B21095D0029ECD101210170A07D0140022002F0D4FF38BD02F00FFB0120FEF72EFF4B
:4069400038BD0000B41500207E0D0020F8B50646002403F031F80546304603F047F803460A480021068A0DE001228A401046174628401F40002803D0002F01D1224394B21B
:40698000491CC9B28E42EFD82046F8BD8016002070B500252C460A4E03E0002C01D0002000E030460079002803D02046FFF7CEFF0543641C2406240EEFD0284670BD00000A
:4069C000B41500201CB50020694648706846FFF7AFFD01AA69460A20FEF79AFD6946042008561CBD70B50D4601F04AFB04000BD02079002808D0FDF739FDE178A0782A46BB
:406A000002F0D4FC002070BD022070BD01480078704700008C1500204030C07E002800D00120704700B500F001F800BD902148430749084A40186030417F491CC9B24177C8
:406A4000D289914201D300214177C8B270470000941500208016002013B501F011FB04000BD001F0AEFE002807D0214601AA0A310620FEF74DFD00201CBD02201CBD0000A5
:406A800010B50C4601F0FCFA00280AD001F099FE002806D0224604490A20FEF739FD002010BD022010BD000075150020F3B581B0074601460026029802F076FF0446002FB3
:406AC00001D0002500E0154D002D21D0284601F00DFB032C04D13946029802F0C1FF06463846029902F0B0F9032C06D0002C10D00121384601F000FC03E03146384603F0A1
:406B0000B5F9284602F08EF80221284602F0A4F8FEBD3846029902F097F9FEBDB415002010B5044600F066FA002804D103F068FE002801D00C2010BD2078611C02F038FDC5
:406B4000FF2801D01F2010BD02F07EFDFF280AD02178621C02F000F9044821780068026B601C904710BD072010BD0000A40D002010B503F045FE002801D00C2010BD02F023
:406B8000F9FC03480068C06A8047002010BD0000A40D002070B50D46044610210DF04CF91021601806460DF047F9334610221946204603F053FE102130460DF03DF9022067
:406BC0002870204604F07CFD70BD0000F8B504464078217802028006870FE0781143A67809050002090D0643084601F049FA00210546F2B2002812D0002C10D0022F0ED0A5
:406C0000032F0CD0002A0AD00279092A07D0002A05D0134A5A23527E1B5C9A4207D82889002104F082FC20460DF0C6F9FF21002914D10C48224600682946436930469847BA
:406C4000C0B2FF280AD128464030817EF2B2491C8176FF232146284600F0E3F8F8BD00004C150020C00D00200020704710B5044603F0C6FD002801D00C2010BD2078611C3B
:406C800002F096FCFF2808D002F0CEFB044821780068426B601C904710BD1F2010BD0000A40D002010B500F06BF904F0D3FD002010BD10B5044600786178E2780843A178B7
:406CC00011430843217908436179084305D003F089FD002803D00C2010BD122010BD204602F05EFD002010BD10B5FDF7E5F802F085FE044803F0E8FE02F0A0FB012000F03C
:406D000003F810BD5C150020F1B586B003A8009005A8019028489F22817A114081726846FDF7BEFB002845D169460989C90705D0224806990068C268684690476946098955
:406D4000890706D5002835D11D480068816A0698884700282ED11B4E0025757075737571F575357675767575B570F570B5713746F5730120D03738731F20F880FF2130464E
:406D80007972A0300176457600F0DCFA00242046069901F0C1FC002803D1641C2406240EF5D0FD720749BD72B573C0310D704D704D600D7207B0F0BD4C150020C00D00206D
:406DC000A40D00209415002070B505460E46084602F0F2FD0446304602F008FE0121A9400A46224001400A4301D0012070BD002070BD10B50446084602F0F8FD0121A14050
:406E0000014201D0012010BD002010BD10B5FEF787FC032804D102F09FF80120FEF7BEFC10BDFEB51C4616460F46054601F0FAFEA878FFF7F7FD0246019033463946009497
:406E4000284600F00DF8002808D1A8780199FFF705FCFF2C02D138460DF0AEF8FEBD0000FFB585B005460E980C46FF2810D02B49C00009680A5840180179C0795278814251
:406E800001D9012601E09006860F6846038108E06078A1788006860FE0780002014368460181284601F098FC070007D021462846079A00F093FC384609B0F0BD304600F0C1
:406EC00041FD04AE0346039002AA29460096204600F0CDFB3C20405D002818D0284601F07BFC012813D0684600890096C0B20190A878231DFF22079902F086F96846008973
:406F0000039BC2B2A878079902F0C6FCD3E7684600890021C0B20091E9E70000BC0D0020F8B5002600253046FFF710FD07001DD090201149704340186030447F12E0601CC2
:406F4000FDF724F9CCB23846E040C007C00F07D02146304601F06EFF21463046FFF7A6FD6D1CEDB20548018AA942E8D8761C3606360ED7D0F8BD000094150020801600202E
:406F800010B502F05BFA0020FFF7BEFE0DF0AAF8002010BDF8B5002400F0D2F80123012800D10124104F00203E4620360425082203E0002801D0002100E0314609790029EE
:406FC00007D001290BD002290BD0114681402143CCB2401C0006000EEBD07C70F8BD1C43F7E72C43F5E700009415002010B5FFF7D1FF10BD10B5044604F07EFD002802D1C7
:40700000601C00F001F810BD1CB500240094062269460194FDF7D6F9002800D1122420461CBD000070B50E4CFCF7E3FB0546FEF777FB062802D02078012803D02846FCF701
:40704000DCFB70BDFBF7B6F82846FCF7D6FBFEF767FB0628F5D020780028E5D170BD00006A0D002010B5FCF7C4FB0446FEF758FB012809D0FEF754FB022805D0FBF79AF8E4
:407080002046FCF7BAFBEEE72046FCF7B6FB10BD10B50B4681791943817103D08078114602F0C8FB10BD10B582798A43827102D1807802F0D3FB10BD30B50C4C0220A28AB1
:4070C0000B4B9978002901D0022906D11D785B78EB18282B01D9032002E0032900D101205105490DC0020143A18230BDC0112E40740D002000B500F029F8002807D00128E2
:4071000005D0032801D0042801D0002000BD012000BD014600B50020C90701D000F010F800BD014600B50020C90701D000F008F800BD000001480068704700006C0D0020E9
:4071400001480088000A704720102E400448008B410501D5042070474007800F7047000000102E4001484068704700006C0D002038B50446000610D5FFF7E8FF01280CD1C0
:40718000684601F0F9FE6846007800F02BFB012001F0B0FD0220FFF729FF600708D507480179012904D1002101712620FFF7F0F90348006801692046884738BD780D00204E
:4071C000A40D002010B501460A4A007800241070FFF7B6FF0128084603D002F04DFA204610BD00F0E7F80400F9D1034801210170F5E70000740D00205416002070B50446F0
:40720000FFF79EFF002801D00C2070BDA27B01211F48002A827801D00A4301E05208520082706279012A14D0C17849084900C170184D2868016820468847207901280CD0E3
